{
  "transactions": [
    {
      "hash": "0xcb9763f963823181fe9352c630e0379eaa76f9892ef01a36090c4317fa390fbb",
      "transactionType": "CALL",
      "contractName": null,
      "contractAddress": "0x71a0689729224a84f6965ceeba182e6ce7e28d27",
      "function": "mint(address)",
      "arguments": [
        "0x6DAE73Ee386a7D45Eb15d5d1F2B0acEdc185DcDa"
      ],
      "transaction": {
        "from": "0x6dae73ee386a7d45eb15d5d1f2b0acedc185dcda",
        "to": "0x71a0689729224a84f6965ceeba182e6ce7e28d27",
        "gas": "0x141b3",
        "value": "0x0",
        "input": "0x6a6278420000000000000000000000006dae73ee386a7d45eb15d5d1f2b0acedc185dcda",
        "nonce": "0x4",
        "chainId": "0xaa36a7"
      },
      "additionalContracts": [],
      "isFixedGasLimit": false
    }
  ],
  "receipts": [
    {
      "status": "0x1",
      "cumulativeGasUsed": "0x1e83cd9",
      "logs": [
        {
          "address": "0x71a0689729224a84f6965ceeba182e6ce7e28d27",
          "topics": [
            "0xddf252ad1be2c89b69c2b068fc378daa952ba7f163c4a11628f55a4df523b3ef",
            "0x0000000000000000000000000000000000000000000000000000000000000000",
            "0x0000000000000000000000006dae73ee386a7d45eb15d5d1f2b0acedc185dcda",
            "0x0000000000000000000000000000000000000000000000000000000000000001"
          ],
          "data": "0x",
          "blockHash": "0xea3124c8dbefe54e55ef0c36273f1de9777642765684639fef8a1416cb8ab8b2",
          "blockNumber": "0xa02ff6",
          "blockTimestamp": "0x69bfee00",
          "transactionHash": "0xcb9763f963823181fe9352c630e0379eaa76f9892ef01a36090c4317fa390fbb",
          "transactionIndex": "0xb3",
          "logIndex": "0x5ab",
          "removed": false
        }
      ],
      "logsBloom": "0x00000000000000000000000000000000000000000000000000000000000000000000000000000000000000000000000000000000000000000000000000040000008000000000000000000008000000002000000000040000000000000000000000000000020000000000000000000800000000000000000000000010000000000004000000000000000000000000000000000000000000000000000000000000000000000000000000008000000000000000000000000000000000000000000000000002000000000000040000000000000000000000000000000000000060000000000000000000000000000000000000000000000000000000000000400000",
      "type": "0x2",
      "transactionHash": "0xcb9763f963823181fe9352c630e0379eaa76f9892ef01a36090c4317fa390fbb",
      "transactionIndex": "0xb3",
      "blockHash": "0xea3124c8dbefe54e55ef0c36273f1de9777642765684639fef8a1416cb8ab8b2",
      "blockNumber": "0xa02ff6",
      "gasUsed": "0xe8e8",
      "effectiveGasPrice": "0x14f0891e",
      "from": "0x6dae73ee386a7d45eb15d5d1f2b0acedc185dcda",
      "to": "0x71a0689729224a84f6965ceeba182e6ce7e28d27",
      "contractAddress": null
    }
  ],
  "libraries": [],
  "pending": [],
  "returns": {},
  "timestamp": 1774185986031,
  "chain": 11155111,
  "commit": "b09c07e"
}